:020000040000FA
:1000000070020010650100006D0100006F0100002A
:1000100000000000000000000000000000000000E0
:10002000000000000000000000000000710100005E
:1000300000000000000000007301000075010000D6
:1000400077010000770100007701000077010000D0
:1000500077010000770100007701000077010000C0
:1000600077010000770100007701000077010000B0
:1000700077010000770100007701000077010000A0
:10008000D5030000010300007701000077010000A4
:100090007701000077010000770100007701000080
:1000A0007701000077010000770100007701000070
:1000B000770100007701000077010000DD030000F8
:1000C00000F002F800F03EF80CA030C80838241800
:1000D0002D18A246671EAB4654465D46AC4201D180
:1000E00000F030F87E460F3E0FCCB6460126334274
:1000F00000D0FB1AA246AB463343184774080000F1
:1001000094080000103A02D378C878C1FAD8520790
:1001100001D330C830C101D504680C6070470000BD
:100120000023002400250026103A01D378C1FBD813
:10013000520700D330C100D50B6070471FB51FBDFB
:1001400010B510BD00F0DCFB1146FFF7F7FF00F023
:1001500072F900F0F4FB03B4FFF7F2FF03BC00F008
:10016000F9FB00000748804707480047FEE7FEE725
:10017000FEE7FEE7FEE7FEE704480549034A054BB4
:1001800070470000B1050000C100000070000010C1
:1001900070020010700000101248006812490843F5
:1001A0001049086008201149486111480068102171
:1001B00008430F4908600F48C06B102188430D4960
:1001C000C8637047002806D00A49C96B1022114342
:1001D000084AD16305E00749C96B10229143054ADB
:1001E000D16370478080044040000100804004409B
:1001F00000800150C03F0150154800681549084370
:1002000013490860102014498860886212494031FF
:10021000C86111498031C8600F49403108604860A9
:100220000D490860086248620B49403148618861A5
:1002300008630A480A49086070470F2900DD7047C3
:100240000202084B5B5C1A43074BDA6300BFF6E718
:10025000808004404000010000400440FF0F000087
:100260000080025060090000C03F02500C48006846
:100270000C4908430A49086008200B494860886017
:10028000C861C86208498039C86307494039886035
:100290000648006838210843044908607047000098
:1002A00080800440400001008040044000800350F2
:1002B0000C4800680C4908430A49086008200B49AB
:1002C00088630B480068491508430949086070476E
:1002D00000200849C8637047012040020549C863EF
:1002E000704700008080044040000100004004404E
:1002F00000800150C03F015070470000FFFFFFFF2A
:1003000010B500249E480078002805D19D4801784A
:100310000120FFF792FF1CE099480078012805D1E1
:10032000984841780220FFF788FF12E0944800784F
:10033000022805D1934881780420FFF77EFF08E06A
:100340008F480078032804D18E48C1780820FFF731
:1003500074FF8B480078401C894908700878C117E1
:10036000890F091889108900411A854A11700120E6
:100370008549086000242AE08448C06BE11C012202
:100380008A4090438149C8630846C06B4007400FCC
:1003900007214840012804D0022806D004280CD1A7
:1003A00007E0601C7A49087007E0201D7849087052
:1003B00003E0E01D7649087000BF00BF7348C06BC2
:1003C000E11C01228A4010437049C863641C032C5D
:1003D000D2DB10BD01206F49086070476E4800787D
:1003E000C0436D4908706D48C069022108436B49DC
:1003F000C86170476A480069C008C0006849086160
:10040000664800680221884364490860002048600B
:100410000846C068022108436049C8600846006970
:10042000022108435D4908611F20012181405D4A86
:10043000116000BF704708B50024002600BFFFF719
:1004400037FFFFF713FFFFF7D7FEFFF7A5FE00F01A
:1004500065F9052000F030F9642000F012F9012060
:10046000FFF7B0FEFFF7C6FF88E04B480078002892
:100470005DD00025002425E04B48006801210906D5
:1004800008434949086000BF47484069C00FC0079A
:100490000028F9D044480068012109060843424970
:1004A000086000BF40484069C00FC0070028F9D06D
:1004B0003D484069009000980004800D009000982D
:1004C0002D18641C0A2CD7DB0A21284600F068F995
:1004D000054636486843850A0A21284600F060F937
:1004E000284801700A21284600F05AF9074664217D
:1004F000284600F055F90A214843381A2149487026
:100500006421284600F04CF907467D21C9002846A1
:1005100000F046F90A214843381A1A4988707D21AB
:10052000C900284600F03CF91649C8701BE00A21B2
:10053000204600F03FF9C8B2124908700A2120464F
:1005400000F038F9C8B20F4948700A21204600F07F
:1005500031F9C8B20B4988700D480078C870641C26
:10056000C82000F080F8642000F07DF8002E02D052
:10057000FFF7AEFE01E0FFF7AFFEF64375E70000C0
:10058000000000100100001000000140C03F0350B7
:100590000700001000C0004008000010008000505C
:1005A0000040044000E100E000C00140E40C000015
:1005B0000F48806BA02188430D49886301200D49B5
:1005C0000860002048600120486023200949403924
:1005D000886000BF07484038C0680028FAD0032070
:1005E0000449086300204863012048637047000005
:1005F000008204404080044010B5002819DA404AC7
:1006000003071B0F083B9B089B00D2588307DC0E97
:10061000FF23A3409A438B071B0E8407E40EA340DD
:100620001A43374B0407240F083CA408A4001A51AE
:1006300018E0344A03231B02D21883089B00D258C7
:100640008307DC0EFF23A3409A438B071B0E84070E
:10065000E40EA3401A432B4B032424021B198408E5
:10066000A4001A5110BD0146002005E0002000E062
:10067000401C254A9042FBD30A46491E002AF5D168
:10068000704710B5044621480068802108431F497F
:10069000086001201E4908601E48C86003204861A8
:1006A000601E886101204860102000F022F80121BE
:1006B0001020FFF7A1FF10BD10B5044613480068D5
:1006C000FF210131084311490860012012490860E7
:1006D0001048401EC860032048610846846101201C
:1006E0004860112000F005F802211120FFF784FF77
:1006F00010BDC206D20E01219140024A116070471E
:100700001CED00E000E100E0881300008080044060
:1007100000C0004080BB0000000001401B48006892
:10072000012109040843194908601948806BC00871
:10073000C000174988630846806B022108431449AA
:1007400088630846806B18218843114988630846EE
:10075000806B802188430E4988630E48806B10218E
:1007600088430C498863094800680121490308430C
:1007700006490860084809490860044800680121E2
:1007800009048843014908607047000080800440E4
:100790004040044000820440022F000000C001409D
:1007A000002203098B422CD3030A8B4211D300236E
:1007B0009C464EE003460B433CD4002243088B4248
:1007C00031D303098B421CD3030A8B4201D39446D5
:1007D0003FE0C3098B4201D3CB01C01A52418309C8
:1007E0008B4201D38B01C01A524143098B4201D382
:1007F0004B01C01A524103098B4201D30B01C01AAD
:100800005241C3088B4201D3CB00C01A5241830826
:100810008B4201D38B00C01A524143088B4201D353
:100820004B00C01A5241411A00D2014652411046B3
:1008300070475DE0CA0F00D04942031000D3404228
:10084000534000229C4603098B422DD3030A8B425E
:1008500012D3FC22890112BA030A8B420CD38901FC
:1008600092118B4208D3890192118B4204D38901E2
:100870003AD0921100E08909C3098B4201D3CB0120
:10088000C01A524183098B4201D38B01C01A5241D5
:1008900043098B4201D34B01C01A524103098B42D9
:1008A00001D30B01C01A5241C3088B4201D3CB00C4
:1008B000C01A524183088B4201D38B00C01A5241A7
:1008C000D9D243088B4201D34B00C01A5241411A7E
:1008D00000D20146634652415B10104601D34042AC
:1008E000002B00D54942704763465B1000D340425D
:1008F00001B50020C046C04602BD70477047704732
:10090000754600F023F8AE46050069465346C00818
:10091000C000854618B020B5FFF72EFC60BC00274C
:100920004908B6460026C0C5C0C5C0C5C0C5C0C5BB
:10093000C0C5C0C5C0C5403D49008D46704704468E
:10094000C046C0462046FFF706FC0000004870473E
:100950000C00001001491820ABBEFEE72600020083
:10096000C0F9A4B0999282F880908883C6A1868E3F
:1009700090090000000000100C00000004010000BD
:100980009C0900000C00001064020000200100001F
:0C0990000000000000000001000000005A
:04000005000000C136
:00000001FF
