:020000040000FA
:10000000600200104D010000550100005701000082
:1000100000000000000000000000000000000000E0
:100020000000000000000000000000005901000076
:1000300000000000000000005B0100005D01000006
:100040005F0100005F0100005F0100005F01000030
:100050005F0100005F0100005F0100005F01000020
:100060005F0100005F0100005F0100005F01000010
:100070005F0100005F0100005F0100005F01000000
:100080005F0100005F0100005F0100005F010000F0
:100090005F0100005F0100005F0100005F010000E0
:1000A0005F0100005F0100005F0100005F010000D0
:1000B0005F0100005F0100005F0100005F010000C0
:1000C00000F002F800F032F80CA030C8083824180C
:1000D0002D18A246671EAB4654465D46AC4201D180
:1000E00000F024F87E460F3E0FCCB6460126334280
:1000F00000D0FB1AA246AB46334318470402000067
:10010000140200000023002400250026103A01D329
:1001100078C1FBD8520700D330C100D50B607047BF
:100120001FB5C046C0461FBD10B510BD00F0AFF8EA
:100130001146FFF7F5FF00F078F800F0C7F803B4B8
:10014000FFF7F2FF03BC00F0CBF800000748804740
:1001500007480047FEE7FEE7FEE7FEE7FEE7FEE7AB
:1001600004480549034A054B70470000E9010000B7
:10017000C10000006000001060020010600000106C
:100180000146002005E0002000E0401C364A904275
:10019000FBD30A46491E002AF5D170473348006850
:1001A00040210843314908603148806BC008C000D5
:1001B0002F4988632F480068491508432D49086076
:1001C0002D48C06B0121490208432B49C8632848C8
:1001D0000069C008C000264908612848006802215B
:1001E00088432649086070472548806BA0218843D2
:1001F0002349886301201D49403908600020486078
:1002000001204860232019498039886000BF1748C1
:100210008038C0680028FAD00320144940390863A8
:1002200000204863012048637047FFF7B7FF19E0DB
:100230001448C06B0221084214D10F48C06B090258
:1002400088430D49C863FF209130FFF799FF0A48A2
:10025000C06B0121490208430749C863FF20913060
:10026000FFF78EFFE4E70000881300008080044061
:100270000040044000800150C03F01500080005009
:1002800000820440C03F0050704770477047754679
:1002900000F022F8AE46050069465346C008C0008B
:1002A000854618B020B5FFF75BFF60BC0027490802
:1002B000B6460026C0C5C0C5C0C5C0C5C0C5C0C5FE
:1002C000C0C5C0C5403D49008D4670470446C04684
:1002D000C0462046FFF733FF00487047000000107B
:1002E00001491820ABBEFEE726000200704700005F
:1002F000000000000000000000000000FFFFFFFF02
:100300001003000000000010600200000401000063
:04000005000000C136
:00000001FF
